{"abi":[{"type":"constructor","inputs":[],"stateMutability":"nonpayable"},{"type":"function","name":"DEFAULT_ADMIN_ROLE","inputs":[],"outputs":[{"name":"","type":"bytes32","internalType":"bytes32"}],"stateMutability":"view"},{"type":"function","name":"MINTER_ROLE","inputs":[],"outputs":[{"name":"","type":"bytes32","internalType":"bytes32"}],"stateMutability":"view"},{"type":"function","name":"addRarity","inputs":[{"name":"rarityId","type":"uint256","internalType":"uint256"},{"name":"price","type":"uint256","internalType":"uint256"}],"outputs":[],"stateMutability":"nonpayable"},{"type":"function","name":"balanceOf","inputs":[{"name":"account","type":"address","internalType":"address"},{"name":"id","type":"uint256","internalType":"uint256"}],"outputs":[{"name":"","type":"uint256","internalType":"uint256"}],"stateMutability":"view"},{"type":"function","name":"balanceOfBatch","inputs":[{"name":"accounts","type":"address[]","internalType":"address[]"},{"name":"ids","type":"uint256[]","internalType":"uint256[]"}],"outputs":[{"name":"","type":"uint256[]","internalType":"uint256[]"}],"stateMutability":"view"},{"type":"function","name":"enabledRarities","inputs":[{"name":"","type":"uint256","internalType":"uint256"}],"outputs":[{"name":"","type":"bool","internalType":"bool"}],"stateMutability":"view"},{"type":"function","name":"getRoleAdmin","inputs":[{"name":"role","type":"bytes32","internalType":"bytes32"}],"outputs":[{"name":"","type":"bytes32","internalType":"bytes32"}],"stateMutability":"view"},{"type":"function","name":"grantRole","inputs":[{"name":"role","type":"bytes32","internalType":"bytes32"},{"name":"account","type":"address","internalType":"address"}],"outputs":[],"stateMutability":"nonpayable"},{"type":"function","name":"hasRole","inputs":[{"name":"role","type":"bytes32","internalType":"bytes32"},{"name":"account","type":"address","internalType":"address"}],"outputs":[{"name":"","type":"bool","internalType":"bool"}],"stateMutability":"view"},{"type":"function","name":"isApprovedForAll","inputs":[{"name":"account","type":"address","internalType":"address"},{"name":"operator","type":"address","internalType":"address"}],"outputs":[{"name":"","type":"bool","internalType":"bool"}],"stateMutability":"view"},{"type":"function","name":"mint","inputs":[{"name":"to","type":"address","internalType":"address"},{"name":"rarityId","type":"uint256","internalType":"uint256"},{"name":"amount","type":"uint256","internalType":"uint256"}],"outputs":[],"stateMutability":"nonpayable"},{"type":"function","name":"mintBatch","inputs":[{"name":"to","type":"address","internalType":"address"},{"name":"rarityIds","type":"uint256[]","internalType":"uint256[]"},{"name":"amounts","type":"uint256[]","internalType":"uint256[]"}],"outputs":[],"stateMutability":"nonpayable"},{"type":"function","name":"owner","inputs":[],"outputs":[{"name":"","type":"address","internalType":"address"}],"stateMutability":"view"},{"type":"function","name":"rarityPrices","inputs":[{"name":"","type":"uint256","internalType":"uint256"}],"outputs":[{"name":"","type":"uint256","internalType":"uint256"}],"stateMutability":"view"},{"type":"function","name":"renounceOwnership","inputs":[],"outputs":[],"stateMutability":"nonpayable"},{"type":"function","name":"renounceRole","inputs":[{"name":"role","type":"bytes32","internalType":"bytes32"},{"name":"account","type":"address","internalType":"address"}],"outputs":[],"stateMutability":"nonpayable"},{"type":"function","name":"revokeRole","inputs":[{"name":"role","type":"bytes32","internalType":"bytes32"},{"name":"account","type":"address","internalType":"address"}],"outputs":[],"stateMutability":"nonpayable"},{"type":"function","name":"safeBatchTransferFrom","inputs":[{"name":"from","type":"address","internalType":"address"},{"name":"to","type":"address","internalType":"address"},{"name":"ids","type":"uint256[]","internalType":"uint256[]"},{"name":"amounts","type":"uint256[]","internalType":"uint256[]"},{"name":"data","type":"bytes","internalType":"bytes"}],"outputs":[],"stateMutability":"nonpayable"},{"type":"function","name":"safeTransferFrom","inputs":[{"name":"from","type":"address","internalType":"address"},{"name":"to","type":"address","internalType":"address"},{"name":"id","type":"uint256","internalType":"uint256"},{"name":"amount","type":"uint256","internalType":"uint256"},{"name":"data","type":"bytes","internalType":"bytes"}],"outputs":[],"stateMutability":"nonpayable"},{"type":"function","name":"setApprovalForAll","inputs":[{"name":"operator","type":"address","internalType":"address"},{"name":"approved","type":"bool","internalType":"bool"}],"outputs":[],"stateMutability":"nonpayable"},{"type":"function","name":"setPrice","inputs":[{"name":"rarityId","type":"uint256","internalType":"uint256"},{"name":"price","type":"uint256","internalType":"uint256"}],"outputs":[],"stateMutability":"nonpayable"},{"type":"function","name":"setRarityEnabled","inputs":[{"name":"rarityId","type":"uint256","internalType":"uint256"},{"name":"enabled","type":"bool","internalType":"bool"}],"outputs":[],"stateMutability":"nonpayable"},{"type":"function","name":"supportsInterface","inputs":[{"name":"interfaceId","type":"bytes4","internalType":"bytes4"}],"outputs":[{"name":"","type":"bool","internalType":"bool"}],"stateMutability":"view"},{"type":"function","name":"transferOwnership","inputs":[{"name":"newOwner","type":"address","internalType":"address"}],"outputs":[],"stateMutability":"nonpayable"},{"type":"function","name":"uri","inputs":[{"name":"","type":"uint256","internalType":"uint256"}],"outputs":[{"name":"","type":"string","internalType":"string"}],"stateMutability":"view"},{"type":"event","name":"ApprovalForAll","inputs":[{"name":"account","type":"address","indexed":true,"internalType":"address"},{"name":"operator","type":"address","indexed":true,"internalType":"address"},{"name":"approved","type":"bool","indexed":false,"internalType":"bool"}],"anonymous":false},{"type":"event","name":"CapsuleMinted","inputs":[{"name":"to","type":"address","indexed":true,"internalType":"address"},{"name":"rarityId","type":"uint256","indexed":false,"internalType":"uint256"},{"name":"amount","type":"uint256","indexed":false,"internalType":"uint256"}],"anonymous":false},{"type":"event","name":"OwnershipTransferred","inputs":[{"name":"previousOwner","type":"address","indexed":true,"internalType":"address"},{"name":"newOwner","type":"address","indexed":true,"internalType":"address"}],"anonymous":false},{"type":"event","name":"RarityAdded","inputs":[{"name":"rarityId","type":"uint256","indexed":true,"internalType":"uint256"},{"name":"price","type":"uint256","indexed":false,"internalType":"uint256"}],"anonymous":false},{"type":"event","name":"RoleAdminChanged","inputs":[{"name":"role","type":"bytes32","indexed":true,"internalType":"bytes32"},{"name":"previousAdminRole","type":"bytes32","indexed":true,"internalType":"bytes32"},{"name":"newAdminRole","type":"bytes32","indexed":true,"internalType":"bytes32"}],"anonymous":false},{"type":"event","name":"RoleGranted","inputs":[{"name":"role","type":"bytes32","indexed":true,"internalType":"bytes32"},{"name":"account","type":"address","indexed":true,"internalType":"address"},{"name":"sender","type":"address","indexed":true,"internalType":"address"}],"anonymous":false},{"type":"event","name":"RoleRevoked","inputs":[{"name":"role","type":"bytes32","indexed":true,"internalType":"bytes32"},{"name":"account","type":"address","indexed":true,"internalType":"address"},{"name":"sender","type":"address","indexed":true,"internalType":"address"}],"anonymous":false},{"type":"event","name":"TransferBatch","inputs":[{"name":"operator","type":"address","indexed":true,"internalType":"address"},{"name":"from","type":"address","indexed":true,"internalType":"address"},{"name":"to","type":"address","indexed":true,"internalType":"address"},{"name":"ids","type":"uint256[]","indexed":false,"internalType":"uint256[]"},{"name":"values","type":"uint256[]","indexed":false,"internalType":"uint256[]"}],"anonymous":false},{"type":"event","name":"TransferSingle","inputs":[{"name":"operator","type":"address","indexed":true,"internalType":"address"},{"name":"from","type":"address","indexed":true,"internalType":"address"},{"name":"to","type":"address","indexed":true,"internalType":"address"},{"name":"id","type":"uint256","indexed":false,"internalType":"uint256"},{"name":"value","type":"uint256","indexed":false,"internalType":"uint256"}],"anonymous":false},{"type":"event","name":"URI","inputs":[{"name":"value","type":"string","indexed":false,"internalType":"string"},{"name":"id","type":"uint256","indexed":true,"internalType":"uint256"}],"anonymous":false}],"bytecode":{"object":"0x608060405234801562000010575f80fd5b506040518060600160405280602a81526020016200499e602a91396200003c81620000f760201b60201c565b506200005d620000516200010c60201b60201c565b6200011360201b60201c565b620000715f801b33620001d660201b60201c565b620000a37f9f2df0fed2c77648de5860a4cc508cd0818c85b8b8a1ab4ceeef8d981c8956a633620001d660201b60201c565b620000bc5f662386f26fc10000620002c260201b60201c565b620000d6600166b1a2bc2ec50000620002c260201b60201c565b620000f1600267016345785d8a0000620002c260201b60201c565b620007f6565b806002908162000108919062000668565b5050565b5f33905090565b5f60035f9054906101000a900473ffffffffffffffffffffffffffffffffffffffff1690508160035f6101000a81548173ffffffffffffffffffffffffffffffffffffffff021916908373ffffffffffffffffffffffffffffffffffffffff1602179055508173ffffffffffffffffffffffffffffffffffffffff168173ffffffffffffffffffffffffffffffffffffffff167f8be0079c531659141344cd1fd0a4f28419497f9722a3daafe3b4186f6b6457e060405160405180910390a35050565b620001e88282620003a060201b60201c565b620002be57600160045f8481526020019081526020015f205f015f8373ffffffffffffffffffffffffffffffffffffffff1673ffffffffffffffffffffffffffffffffffffffff1681526020019081526020015f205f6101000a81548160ff021916908315150217905550620002636200010c60201b60201c565b73ffffffffffffffffffffffffffffffffffffffff168173ffffffffffffffffffffffffffffffffffffffff16837f2f8788117e7eff1d82e926ec794901d17c78024a50270940304540a733656f0d60405160405180910390a45b5050565b60065f8381526020019081526020015f205f9054906101000a900460ff161562000323576040517f08c379a00000000000000000000000000000000000000000000000000000000081526004016200031a90620007aa565b60405180910390fd5b8060055f8481526020019081526020015f2081905550600160065f8481526020019081526020015f205f6101000a81548160ff021916908315150217905550817ffd81b80e21d8e1920374c7044029990efa7c5a752315cd498004f7403cc6147f82604051620003949190620007db565b60405180910390a25050565b5f60045f8481526020019081526020015f205f015f8373ffffffffffffffffffffffffffffffffffffffff1673ffffffffffffffffffffffffffffffffffffffff1681526020019081526020015f205f9054906101000a900460ff16905092915050565b5f81519050919050565b7f4e487b71000000000000000000000000000000000000000000000000000000005f52604160045260245ffd5b7f4e487b71000000000000000000000000000000000000000000000000000000005f52602260045260245ffd5b5f60028204905060018216806200048057607f821691505b6020821081036200049657620004956200043b565b5b50919050565b5f819050815f5260205f209050919050565b5f6020601f8301049050919050565b5f82821b905092915050565b5f60088302620004fa7fffffffffffffffffffffffffffffffffffffffffffffffffffffffffffffffff82620004bd565b620005068683620004bd565b95508019841693508086168417925050509392505050565b5f819050919050565b5f819050919050565b5f620005506200054a62000544846200051e565b62000527565b6200051e565b9050919050565b5f819050919050565b6200056b8362000530565b620005836200057a8262000557565b848454620004c9565b825550505050565b5f90565b620005996200058b565b620005a681848462000560565b505050565b5b81811015620005cd57620005c15f826200058f565b600181019050620005ac565b5050565b601f8211156200061c57620005e6816200049c565b620005f184620004ae565b8101602085101562000601578190505b620006196200061085620004ae565b830182620005ab565b50505b505050565b5f82821c905092915050565b5f6200063e5f198460080262000621565b1980831691505092915050565b5f6200065883836200062d565b9150826002028217905092915050565b620006738262000404565b67ffffffffffffffff8111156200068f576200068e6200040e565b5b6200069b825462000468565b620006a8828285620005d1565b5f60209050601f831160018114620006de575f8415620006c9578287015190505b620006d585826200064b565b86555062000744565b601f198416620006ee866200049c565b5f5b828110156200071757848901518255600182019150602085019450602081019050620006f0565b8683101562000737578489015162000733601f8916826200062d565b8355505b6001600288020188555050505b505050505050565b5f82825260208201905092915050565b7f52617269747920616c72656164792065786973747300000000000000000000005f82015250565b5f620007926015836200074c565b91506200079f826200075c565b602082019050919050565b5f6020820190508181035f830152620007c38162000784565b9050919050565b620007d5816200051e565b82525050565b5f602082019050620007f05f830184620007ca565b92915050565b61419a80620008045f395ff3fe608060405234801561000f575f80fd5b5060043610610170575f3560e01c806391d14854116100dc578063d547741f11610095578063eaa2b6ed1161006f578063eaa2b6ed14610454578063f242432a14610484578063f2fde38b146104a0578063f7d97577146104bc57610170565b8063d547741f146103ec578063d81d0a1514610408578063e985e9c51461042457610170565b806391d148541461032c578063984933871461035c578063a217fddf14610378578063a22cb46514610396578063ac7b5e0e146103b2578063d5391393146103ce57610170565b80632f2ff15d1161012e5780632f2ff15d1461026c57806336568abe146102885780634e1273f4146102a4578063715018a6146102d45780637928040a146102de5780638da5cb5b1461030e57610170565b8062fdd58e1461017457806301ffc9a7146101a45780630e89341c146101d4578063156e29f614610204578063248a9ca3146102205780632eb2c2d614610250575b5f80fd5b61018e60048036038101906101899190612865565b6104d8565b60405161019b91906128b2565b60405180910390f35b6101be60048036038101906101b99190612920565b61059b565b6040516101cb9190612965565b60405180910390f35b6101ee60048036038101906101e9919061297e565b6105ac565b6040516101fb9190612a33565b60405180910390f35b61021e60048036038101906102199190612a53565b61063e565b005b61023a60048036038101906102359190612ad6565b610735565b6040516102479190612b10565b60405180910390f35b61026a60048036038101906102659190612d19565b610752565b005b61028660048036038101906102819190612de4565b6107f3565b005b6102a2600480360381019061029d9190612de4565b610814565b005b6102be60048036038101906102b99190612ee2565b610897565b6040516102cb919061300f565b60405180910390f35b6102dc6109ae565b005b6102f860048036038101906102f3919061297e565b6109c1565b6040516103059190612965565b60405180910390f35b6103166109de565b604051610323919061303e565b60405180910390f35b61034660048036038101906103419190612de4565b610a06565b6040516103539190612965565b60405180910390f35b61037660048036038101906103719190613081565b610a6a565b005b610380610b08565b60405161038d9190612b10565b60405180910390f35b6103b060048036038101906103ab91906130bf565b610b0e565b005b6103cc60048036038101906103c791906130fd565b610b24565b005b6103d6610b3f565b6040516103e39190612b10565b60405180910390f35b61040660048036038101906104019190612de4565b610b63565b005b610422600480360381019061041d9190613194565b610b84565b005b61043e60048036038101906104399190613225565b610dd2565b60405161044b9190612965565b60405180910390f35b61046e6004803603810190610469919061297e565b610e60565b60405161047b91906128b2565b60405180910390f35b61049e60048036038101906104999190613263565b610e75565b005b6104ba60048036038101906104b591906132f6565b610f16565b005b6104d660048036038101906104d191906130fd565b610f98565b005b5f8073ffffffffffffffffffffffffffffffffffffffff168373ffffffffffffffffffffffffffffffffffffffff1603610547576040517f08c379a000000000000000000000000000000000000000000000000000000000815260040161053e90613391565b60405180910390fd5b5f808381526020019081526020015f205f8473ffffffffffffffffffffffffffffffffffffffff1673ffffffffffffffffffffffffffffffffffffffff1681526020019081526020015f2054905092915050565b5f6105a58261101c565b9050919050565b6060600280546105bb906133dc565b80601f01602080910402602001604051908101604052809291908181526020018280546105e7906133dc565b80156106325780601f1061060957610100808354040283529160200191610632565b820191905f5260205f20905b81548152906001019060200180831161061557829003601f168201915b50505050509050919050565b7f9f2df0fed2c77648de5860a4cc508cd0818c85b8b8a1ab4ceeef8d981c8956a661066881611095565b60065f8481526020019081526020015f205f9054906101000a900460ff166106c5576040517f08c379a00000000000000000000000000000000000000000000000000000000081526004016106bc90613456565b60405180910390fd5b6106df84848460405180602001604052805f8152506110a9565b8373ffffffffffffffffffffffffffffffffffffffff167f06b2792e0677fac19b195d43fc97941469aaffcd03cb099f6dc22d5608d77c6f8484604051610727929190613474565b60405180910390a250505050565b5f60045f8381526020019081526020015f20600101549050919050565b61075a61124c565b73ffffffffffffffffffffffffffffffffffffffff168573ffffffffffffffffffffffffffffffffffffffff1614806107a0575061079f8561079a61124c565b610dd2565b5b6107df576040517f08c379a00000000000000000000000000000000000000000000000000000000081526004016107d69061350b565b60405180910390fd5b6107ec8585858585611253565b5050505050565b6107fc82610735565b61080581611095565b61080f8383611561565b505050565b61081c61124c565b73ffffffffffffffffffffffffffffffffffffffff168173ffffffffffffffffffffffffffffffffffffffff1614610889576040517f08c379a000000000000000000000000000000000000000000000000000000000815260040161088090613599565b60405180910390fd5b610893828261163c565b5050565b606081518351146108dd576040517f08c379a00000000000000000000000000000000000000000000000000000000081526004016108d490613627565b60405180910390fd5b5f835167ffffffffffffffff8111156108f9576108f8612b2d565b5b6040519080825280602002602001820160405280156109275781602001602082028036833780820191505090505b5090505f5b84518110156109a35761097385828151811061094b5761094a613645565b5b602002602001015185838151811061096657610965613645565b5b60200260200101516104d8565b82828151811061098657610985613645565b5b6020026020010181815250508061099c9061369f565b905061092c565b508091505092915050565b6109b6611717565b6109bf5f611795565b565b6006602052805f5260405f205f915054906101000a900460ff1681565b5f60035f9054906101000a900473ffffffffffffffffffffffffffffffffffffffff16905090565b5f60045f8481526020019081526020015f205f015f8373ffffffffffffffffffffffffffffffffffffffff1673ffffffffffffffffffffffffffffffffffffffff1681526020019081526020015f205f9054906101000a900460ff16905092915050565b5f801b610a7681611095565b60065f8481526020019081526020015f205f9054906101000a900460ff1680610a9c5750815b610adb576040517f08c379a0000000000000000000000000000000000000000000000000000000008152600401610ad290613756565b60405180910390fd5b8160065f8581526020019081526020015f205f6101000a81548160ff021916908315150217905550505050565b5f801b81565b610b20610b1961124c565b8383611858565b5050565b5f801b610b3081611095565b610b3a83836119bf565b505050565b7f9f2df0fed2c77648de5860a4cc508cd0818c85b8b8a1ab4ceeef8d981c8956a681565b610b6c82610735565b610b7581611095565b610b7f838361163c565b505050565b7f9f2df0fed2c77648de5860a4cc508cd0818c85b8b8a1ab4ceeef8d981c8956a6610bae81611095565b828290508585905014610bf6576040517f08c379a0000000000000000000000000000000000000000000000000000000008152600401610bed906137be565b60405180910390fd5b5f5b85859050811015610c8c5760065f878784818110610c1957610c18613645565b5b9050602002013581526020019081526020015f205f9054906101000a900460ff16610c79576040517f08c379a0000000000000000000000000000000000000000000000000000000008152600401610c7090613456565b60405180910390fd5b8080610c849061369f565b915050610bf8565b50610d27868686808060200260200160405190810160405280939291908181526020018383602002808284375f81840152601f19601f820116905080830192505050505050508585808060200260200160405190810160405280939291908181526020018383602002808284375f81840152601f19601f8201169050808301925050505050505060405180602001604052805f815250611a98565b5f5b85859050811015610dc9578673ffffffffffffffffffffffffffffffffffffffff167f06b2792e0677fac19b195d43fc97941469aaffcd03cb099f6dc22d5608d77c6f878784818110610d7f57610d7e613645565b5b90506020020135868685818110610d9957610d98613645565b5b90506020020135604051610dae929190613474565b60405180910390a28080610dc19061369f565b915050610d29565b50505050505050565b5f60015f8473ffffffffffffffffffffffffffffffffffffffff1673ffffffffffffffffffffffffffffffffffffffff1681526020019081526020015f205f8373ffffffffffffffffffffffffffffffffffffffff1673ffffffffffffffffffffffffffffffffffffffff1681526020019081526020015f205f9054906101000a900460ff16905092915050565b6005602052805f5260405f205f915090505481565b610e7d61124c565b73ffffffffffffffffffffffffffffffffffffffff168573ffffffffffffffffffffffffffffffffffffffff161480610ec35750610ec285610ebd61124c565b610dd2565b5b610f02576040517f08c379a0000000000000000000000000000000000000000000000000000000008152600401610ef99061350b565b60405180910390fd5b610f0f8585858585611cb8565b5050505050565b610f1e611717565b5f73ffffffffffffffffffffffffffffffffffffffff168173ffffffffffffffffffffffffffffffffffffffff1603610f8c576040517f08c379a0000000000000000000000000000000000000000000000000000000008152600401610f839061384c565b60405180910390fd5b610f9581611795565b50565b5f801b610fa481611095565b60065f8481526020019081526020015f205f9054906101000a900460ff16611001576040517f08c379a0000000000000000000000000000000000000000000000000000000008152600401610ff890613456565b60405180910390fd5b8160055f8581526020019081526020015f2081905550505050565b5f7f7965db0b000000000000000000000000000000000000000000000000000000007bffffffffffffffffffffffffffffffffffffffffffffffffffffffff1916827bffffffffffffffffffffffffffffffffffffffffffffffffffffffff1916148061108e575061108d82611f41565b5b9050919050565b6110a6816110a161124c565b612022565b50565b5f73ffffffffffffffffffffffffffffffffffffffff168473ffffffffffffffffffffffffffffffffffffffff1603611117576040517f08c379a000000000000000000000000000000000000000000000000000000000815260040161110e906138da565b60405180910390fd5b5f61112061124c565b90505f61112c856120a6565b90505f611138856120a6565b9050611148835f8985858961211e565b845f808881526020019081526020015f205f8973ffffffffffffffffffffffffffffffffffffffff1673ffffffffffffffffffffffffffffffffffffffff1681526020019081526020015f205f8282546111a291906138f8565b925050819055508673ffffffffffffffffffffffffffffffffffffffff165f73ffffffffffffffffffffffffffffffffffffffff168473ffffffffffffffffffffffffffffffffffffffff167fc3d58168c5ae7397731d063d5bbf3d657854427343f4c083240f7aacaa2d0f62898960405161121f929190613474565b60405180910390a4611235835f89858589612126565b611243835f8989898961212e565b50505050505050565b5f33905090565b8151835114611297576040517f08c379a000000000000000000000000000000000000000000000000000000000815260040161128e9061399b565b60405180910390fd5b5f73ffffffffffffffffffffffffffffffffffffffff168473ffffffffffffffffffffffffffffffffffffffff1603611305576040517f08c379a00000000000000000000000000000000000000000000000000000000081526004016112fc90613a29565b60405180910390fd5b5f61130e61124c565b905061131e81878787878761211e565b5f5b84518110156114be575f85828151811061133d5761133c613645565b5b602002602001015190505f85838151811061135b5761135a613645565b5b602002602001015190505f805f8481526020019081526020015f205f8b73ffffffffffffffffffffffffffffffffffffffff1673ffffffffffffffffffffffffffffffffffffffff1681526020019081526020015f20549050818110156113f7576040517f08c379a00000000000000000000000000000000000000000000000000000000081526004016113ee90613ab7565b60405180910390fd5b8181035f808581526020019081526020015f205f8c73ffffffffffffffffffffffffffffffffffffffff1673ffffffffffffffffffffffffffffffffffffffff1681526020019081526020015f2081905550815f808581526020019081526020015f205f8b73ffffffffffffffffffffffffffffffffffffffff1673ffffffffffffffffffffffffffffffffffffffff1681526020019081526020015f205f8282546114a391906138f8565b92505081905550505050806114b79061369f565b9050611320565b508473ffffffffffffffffffffffffffffffffffffffff168673ffffffffffffffffffffffffffffffffffffffff168273ffffffffffffffffffffffffffffffffffffffff167f4a39dc06d4c0dbc64b70af90fd698a233a518aa5d07e595d983b8c0526c8f7fb8787604051611535929190613ad5565b60405180910390a461154b818787878787612126565b611559818787878787612304565b505050505050565b61156b8282610a06565b61163857600160045f8481526020019081526020015f205f015f8373ffffffffffffffffffffffffffffffffffffffff1673ffffffffffffffffffffffffffffffffffffffff1681526020019081526020015f205f6101000a81548160ff0219169083151502179055506115dd61124c565b73ffffffffffffffffffffffffffffffffffffffff168173ffffffffffffffffffffffffffffffffffffffff16837f2f8788117e7eff1d82e926ec794901d17c78024a50270940304540a733656f0d60405160405180910390a45b5050565b6116468282610a06565b15611713575f60045f8481526020019081526020015f205f015f8373ffffffffffffffffffffffffffffffffffffffff1673ffffffffffffffffffffffffffffffffffffffff1681526020019081526020015f205f6101000a81548160ff0219169083151502179055506116b861124c565b73ffffffffffffffffffffffffffffffffffffffff168173ffffffffffffffffffffffffffffffffffffffff16837ff6391f5c32d9c69d2a47ea670b442974b53935d1edc7fd64eb21e047a839171b60405160405180910390a45b5050565b61171f61124c565b73ffffffffffffffffffffffffffffffffffffffff1661173d6109de565b73ffffffffffffffffffffffffffffffffffffffff1614611793576040517f08c379a000000000000000000000000000000000000000000000000000000000815260040161178a90613b54565b60405180910390fd5b565b5f60035f9054906101000a900473ffffffffffffffffffffffffffffffffffffffff1690508160035f6101000a81548173ffffffffffffffffffffffffffffffffffffffff021916908373ffffffffffffffffffffffffffffffffffffffff1602179055508173ffffffffffffffffffffffffffffffffffffffff168173ffffffffffffffffffffffffffffffffffffffff167f8be0079c531659141344cd1fd0a4f28419497f9722a3daafe3b4186f6b6457e060405160405180910390a35050565b8173ffffffffffffffffffffffffffffffffffffffff168373ffffffffffffffffffffffffffffffffffffffff16036118c6576040517f08c379a00000000000000000000000000000000000000000000000000000000081526004016118bd90613be2565b60405180910390fd5b8060015f8573ffffffffffffffffffffffffffffffffffffffff1673ffffffffffffffffffffffffffffffffffffffff1681526020019081526020015f205f8473ffffffffffffffffffffffffffffffffffffffff1673ffffffffffffffffffffffffffffffffffffffff1681526020019081526020015f205f6101000a81548160ff0219169083151502179055508173ffffffffffffffffffffffffffffffffffffffff168373ffffffffffffffffffffffffffffffffffffffff167f17307eab39ab6107e8899845ad3d59bd9653f200f220920489ca2b5937696c31836040516119b29190612965565b60405180910390a3505050565b60065f8381526020019081526020015f205f9054906101000a900460ff1615611a1d576040517f08c379a0000000000000000000000000000000000000000000000000000000008152600401611a1490613c4a565b60405180910390fd5b8060055f8481526020019081526020015f2081905550600160065f8481526020019081526020015f205f6101000a81548160ff021916908315150217905550817ffd81b80e21d8e1920374c7044029990efa7c5a752315cd498004f7403cc6147f82604051611a8c91906128b2565b60405180910390a25050565b5f73ffffffffffffffffffffffffffffffffffffffff168473ffffffffffffffffffffffffffffffffffffffff1603611b06576040517f08c379a0000000000000000000000000000000000000000000000000000000008152600401611afd906138da565b60405180910390fd5b8151835114611b4a576040517f08c379a0000000000000000000000000000000000000000000000000000000008152600401611b419061399b565b60405180910390fd5b5f611b5361124c565b9050611b63815f8787878761211e565b5f5b8451811015611c1657838181518110611b8157611b80613645565b5b60200260200101515f80878481518110611b9e57611b9d613645565b5b602002602001015181526020019081526020015f205f8873ffffffffffffffffffffffffffffffffffffffff1673ffffffffffffffffffffffffffffffffffffffff1681526020019081526020015f205f828254611bfc91906138f8565b925050819055508080611c0e9061369f565b915050611b65565b508473ffffffffffffffffffffffffffffffffffffffff165f73ffffffffffffffffffffffffffffffffffffffff168273ffffffffffffffffffffffffffffffffffffffff167f4a39dc06d4c0dbc64b70af90fd698a233a518aa5d07e595d983b8c0526c8f7fb8787604051611c8d929190613ad5565b60405180910390a4611ca3815f87878787612126565b611cb1815f87878787612304565b5050505050565b5f73ffffffffffffffffffffffffffffffffffffffff168473ffffffffffffffffffffffffffffffffffffffff1603611d26576040517f08c379a0000000000000000000000000000000000000000000000000000000008152600401611d1d90613a29565b60405180910390fd5b5f611d2f61124c565b90505f611d3b856120a6565b90505f611d47856120a6565b9050611d5783898985858961211e565b5f805f8881526020019081526020015f205f8a73ffffffffffffffffffffffffffffffffffffffff1673ffffffffffffffffffffffffffffffffffffffff1681526020019081526020015f2054905085811015611de9576040517f08c379a0000000000000000000000000000000000000000000000000000000008152600401611de090613ab7565b60405180910390fd5b8581035f808981526020019081526020015f205f8b73ffffffffffffffffffffffffffffffffffffffff1673ffffffffffffffffffffffffffffffffffffffff1681526020019081526020015f2081905550855f808981526020019081526020015f205f8a73ffffffffffffffffffffffffffffffffffffffff1673ffffffffffffffffffffffffffffffffffffffff1681526020019081526020015f205f828254611e9591906138f8565b925050819055508773ffffffffffffffffffffffffffffffffffffffff168973ffffffffffffffffffffffffffffffffffffffff168573ffffffffffffffffffffffffffffffffffffffff167fc3d58168c5ae7397731d063d5bbf3d657854427343f4c083240f7aacaa2d0f628a8a604051611f12929190613474565b60405180910390a4611f28848a8a86868a612126565b611f36848a8a8a8a8a61212e565b505050505050505050565b5f7fd9b67a26000000000000000000000000000000000000000000000000000000007bffffffffffffffffffffffffffffffffffffffffffffffffffffffff1916827bffffffffffffffffffffffffffffffffffffffffffffffffffffffff1916148061200b57507f0e89341c000000000000000000000000000000000000000000000000000000007bffffffffffffffffffffffffffffffffffffffffffffffffffffffff1916827bffffffffffffffffffffffffffffffffffffffffffffffffffffffff1916145b8061201b575061201a826124da565b5b9050919050565b61202c8282610a06565b6120a25761203981612543565b612046835f1c6020612570565b604051602001612057929190613d36565b6040516020818303038152906040526040517f08c379a00000000000000000000000000000000000000000000000000000000081526004016120999190612a33565b60405180910390fd5b5050565b60605f600167ffffffffffffffff8111156120c4576120c3612b2d565b5b6040519080825280602002602001820160405280156120f25781602001602082028036833780820191505090505b50905082815f8151811061210957612108613645565b5b60200260200101818152505080915050919050565b505050505050565b505050505050565b61214d8473ffffffffffffffffffffffffffffffffffffffff166127a5565b156122fc578373ffffffffffffffffffffffffffffffffffffffff1663f23a6e6187878686866040518663ffffffff1660e01b8152600401612193959493929190613dc1565b6020604051808303815f875af19250505080156121ce57506040513d601f19601f820116820180604052508101906121cb9190613e2d565b60015b612273576121da613e64565b806308c379a00361223657506121ee613e83565b806121f95750612238565b806040517f08c379a000000000000000000000000000000000000000000000000000000000815260040161222d9190612a33565b60405180910390fd5b505b6040517f08c379a000000000000000000000000000000000000000000000000000000000815260040161226a90613f82565b60405180910390fd5b63f23a6e6160e01b7bffffffffffffffffffffffffffffffffffffffffffffffffffffffff1916817bffffffffffffffffffffffffffffffffffffffffffffffffffffffff1916146122fa576040517f08c379a00000000000000000000000000000000000000000000000000000000081526004016122f190614010565b60405180910390fd5b505b505050505050565b6123238473ffffffffffffffffffffffffffffffffffffffff166127a5565b156124d2578373ffffffffffffffffffffffffffffffffffffffff1663bc197c8187878686866040518663ffffffff1660e01b815260040161236995949392919061402e565b6020604051808303815f875af19250505080156123a457506040513d601f19601f820116820180604052508101906123a19190613e2d565b60015b612449576123b0613e64565b806308c379a00361240c57506123c4613e83565b806123cf575061240e565b806040517f08c379a00000000000000000000000000000000000000000000000000000000081526004016124039190612a33565b60405180910390fd5b505b6040517f08c379a000000000000000000000000000000000000000000000000000000000815260040161244090613f82565b60405180910390fd5b63bc197c8160e01b7bffffffffffffffffffffffffffffffffffffffffffffffffffffffff1916817bffffffffffffffffffffffffffffffffffffffffffffffffffffffff1916146124d0576040517f08c379a00000000000000000000000000000000000000000000000000000000081526004016124c790614010565b60405180910390fd5b505b505050505050565b5f7f01ffc9a7000000000000000000000000000000000000000000000000000000007bffffffffffffffffffffffffffffffffffffffffffffffffffffffff1916827bffffffffffffffffffffffffffffffffffffffffffffffffffffffff1916149050919050565b60606125698273ffffffffffffffffffffffffffffffffffffffff16601460ff16612570565b9050919050565b60605f60028360026125829190614094565b61258c91906138f8565b67ffffffffffffffff8111156125a5576125a4612b2d565b5b6040519080825280601f01601f1916602001820160405280156125d75781602001600182028036833780820191505090505b5090507f3000000000000000000000000000000000000000000000000000000000000000815f8151811061260e5761260d613645565b5b60200101907effffffffffffffffffffffffffffffffffffffffffffffffffffffffffffff191690815f1a9053507f78000000000000000000000000000000000000000000000000000000000000008160018151811061267157612670613645565b5b60200101907effffffffffffffffffffffffffffffffffffffffffffffffffffffffffffff191690815f1a9053505f60018460026126af9190614094565b6126b991906138f8565b90505b6001811115612758577f3031323334353637383961626364656600000000000000000000000000000000600f8616601081106126fb576126fa613645565b5b1a60f81b82828151811061271257612711613645565b5b60200101907effffffffffffffffffffffffffffffffffffffffffffffffffffffffffffff191690815f1a905350600485901c945080612751906140d5565b90506126bc565b505f841461279b576040517f08c379a000000000000000000000000000000000000000000000000000000000815260040161279290614146565b60405180910390fd5b8091505092915050565b5f808273ffffffffffffffffffffffffffffffffffffffff163b119050919050565b5f604051905090565b5f80fd5b5f80fd5b5f73ffffffffffffffffffffffffffffffffffffffff82169050919050565b5f612801826127d8565b9050919050565b612811816127f7565b811461281b575f80fd5b50565b5f8135905061282c81612808565b92915050565b5f819050919050565b61284481612832565b811461284e575f80fd5b50565b5f8135905061285f8161283b565b92915050565b5f806040838503121561287b5761287a6127d0565b5b5f6128888582860161281e565b925050602061289985828601612851565b9150509250929050565b6128ac81612832565b82525050565b5f6020820190506128c55f8301846128a3565b92915050565b5f7fffffffff0000000000000000000000000000000000000000000000000000000082169050919050565b6128ff816128cb565b8114612909575f80fd5b50565b5f8135905061291a816128f6565b92915050565b5f60208284031215612935576129346127d0565b5b5f6129428482850161290c565b91505092915050565b5f8115159050919050565b61295f8161294b565b82525050565b5f6020820190506129785f830184612956565b92915050565b5f60208284031215612993576129926127d0565b5b5f6129a084828501612851565b91505092915050565b5f81519050919050565b5f82825260208201905092915050565b5f5b838110156129e05780820151818401526020810190506129c5565b5f8484015250505050565b5f601f19601f8301169050919050565b5f612a05826129a9565b612a0f81856129b3565b9350612a1f8185602086016129c3565b612a28816129eb565b840191505092915050565b5f6020820190508181035f830152612a4b81846129fb565b905092915050565b5f805f60608486031215612a6a57612a696127d0565b5b5f612a778682870161281e565b9350506020612a8886828701612851565b9250506040612a9986828701612851565b9150509250925092565b5f819050919050565b612ab581612aa3565b8114612abf575f80fd5b50565b5f81359050612ad081612aac565b92915050565b5f60208284031215612aeb57612aea6127d0565b5b5f612af884828501612ac2565b91505092915050565b612b0a81612aa3565b82525050565b5f602082019050612b235f830184612b01565b92915050565b5f80fd5b7f4e487b71000000000000000000000000000000000000000000000000000000005f52604160045260245ffd5b612b63826129eb565b810181811067ffffffffffffffff82111715612b8257612b81612b2d565b5b80604052505050565b5f612b946127c7565b9050612ba08282612b5a565b919050565b5f67ffffffffffffffff821115612bbf57612bbe612b2d565b5b602082029050602081019050919050565b5f80fd5b5f612be6612be184612ba5565b612b8b565b90508083825260208201905060208402830185811115612c0957612c08612bd0565b5b835b81811015612c325780612c1e8882612851565b845260208401935050602081019050612c0b565b5050509392505050565b5f82601f830112612c5057612c4f612b29565b5b8135612c60848260208601612bd4565b91505092915050565b5f80fd5b5f67ffffffffffffffff821115612c8757612c86612b2d565b5b612c90826129eb565b9050602081019050919050565b828183375f83830152505050565b5f612cbd612cb884612c6d565b612b8b565b905082815260208101848484011115612cd957612cd8612c69565b5b612ce4848285612c9d565b509392505050565b5f82601f830112612d0057612cff612b29565b5b8135612d10848260208601612cab565b91505092915050565b5f805f805f60a08688031215612d3257612d316127d0565b5b5f612d3f8882890161281e565b9550506020612d508882890161281e565b945050604086013567ffffffffffffffff811115612d7157612d706127d4565b5b612d7d88828901612c3c565b935050606086013567ffffffffffffffff811115612d9e57612d9d6127d4565b5b612daa88828901612c3c565b925050608086013567ffffffffffffffff811115612dcb57612dca6127d4565b5b612dd788828901612cec565b9150509295509295909350565b5f8060408385031215612dfa57612df96127d0565b5b5f612e0785828601612ac2565b9250506020612e188582860161281e565b9150509250929050565b5f67ffffffffffffffff821115612e3c57612e3b612b2d565b5b602082029050602081019050919050565b5f612e5f612e5a84612e22565b612b8b565b90508083825260208201905060208402830185811115612e8257612e81612bd0565b5b835b81811015612eab5780612e97888261281e565b845260208401935050602081019050612e84565b5050509392505050565b5f82601f830112612ec957612ec8612b29565b5b8135612ed9848260208601612e4d565b91505092915050565b5f8060408385031215612ef857612ef76127d0565b5b5f83013567ffffffffffffffff811115612f1557612f146127d4565b5b612f2185828601612eb5565b925050602083013567ffffffffffffffff811115612f4257612f416127d4565b5b612f4e85828601612c3c565b9150509250929050565b5f81519050919050565b5f82825260208201905092915050565b5f819050602082019050919050565b612f8a81612832565b82525050565b5f612f9b8383612f81565b60208301905092915050565b5f602082019050919050565b5f612fbd82612f58565b612fc78185612f62565b9350612fd283612f72565b805f5b83811015613002578151612fe98882612f90565b9750612ff483612fa7565b925050600181019050612fd5565b5085935050505092915050565b5f6020820190508181035f8301526130278184612fb3565b905092915050565b613038816127f7565b82525050565b5f6020820190506130515f83018461302f565b92915050565b6130608161294b565b811461306a575f80fd5b50565b5f8135905061307b81613057565b92915050565b5f8060408385031215613097576130966127d0565b5b5f6130a485828601612851565b92505060206130b58582860161306d565b9150509250929050565b5f80604083850312156130d5576130d46127d0565b5b5f6130e28582860161281e565b92505060206130f38582860161306d565b9150509250929050565b5f8060408385031215613113576131126127d0565b5b5f61312085828601612851565b925050602061313185828601612851565b9150509250929050565b5f80fd5b5f8083601f84011261315457613153612b29565b5b8235905067ffffffffffffffff8111156131715761317061313b565b5b60208301915083602082028301111561318d5761318c612bd0565b5b9250929050565b5f805f805f606086880312156131ad576131ac6127d0565b5b5f6131ba8882890161281e565b955050602086013567ffffffffffffffff8111156131db576131da6127d4565b5b6131e78882890161313f565b9450945050604086013567ffffffffffffffff81111561320a576132096127d4565b5b6132168882890161313f565b92509250509295509295909350565b5f806040838503121561323b5761323a6127d0565b5b5f6132488582860161281e565b92505060206132598582860161281e565b9150509250929050565b5f805f805f60a0868803121561327c5761327b6127d0565b5b5f6132898882890161281e565b955050602061329a8882890161281e565b94505060406132ab88828901612851565b93505060606132bc88828901612851565b925050608086013567ffffffffffffffff8111156132dd576132dc6127d4565b5b6132e988828901612cec565b9150509295509295909350565b5f6020828403121561330b5761330a6127d0565b5b5f6133188482850161281e565b91505092915050565b7f455243313135353a2061646472657373207a65726f206973206e6f74206120765f8201527f616c6964206f776e657200000000000000000000000000000000000000000000602082015250565b5f61337b602a836129b3565b915061338682613321565b604082019050919050565b5f6020820190508181035f8301526133a88161336f565b9050919050565b7f4e487b71000000000000000000000000000000000000000000000000000000005f52602260045260245ffd5b5f60028204905060018216806133f357607f821691505b602082108103613406576134056133af565b5b50919050565b7f526172697479206e6f7420656e61626c656400000000000000000000000000005f82015250565b5f6134406012836129b3565b915061344b8261340c565b602082019050919050565b5f6020820190508181035f83015261346d81613434565b9050919050565b5f6040820190506134875f8301856128a3565b61349460208301846128a3565b9392505050565b7f455243313135353a2063616c6c6572206973206e6f7420746f6b656e206f776e5f8201527f6572206f7220617070726f766564000000000000000000000000000000000000602082015250565b5f6134f5602e836129b3565b91506135008261349b565b604082019050919050565b5f6020820190508181035f830152613522816134e9565b9050919050565b7f416363657373436f6e74726f6c3a2063616e206f6e6c792072656e6f756e63655f8201527f20726f6c657320666f722073656c660000000000000000000000000000000000602082015250565b5f613583602f836129b3565b915061358e82613529565b604082019050919050565b5f6020820190508181035f8301526135b081613577565b9050919050565b7f455243313135353a206163636f756e747320616e6420696473206c656e6774685f8201527f206d69736d617463680000000000000000000000000000000000000000000000602082015250565b5f6136116029836129b3565b915061361c826135b7565b604082019050919050565b5f6020820190508181035f83015261363e81613605565b9050919050565b7f4e487b71000000000000000000000000000000000000000000000000000000005f52603260045260245ffd5b7f4e487b71000000000000000000000000000000000000000000000000000000005f52601160045260245ffd5b5f6136a982612832565b91507fffffffffffffffffffffffffffffffffffffffffffffffffffffffffffffffff82036136db576136da613672565b5b600182019050919050565b7f43616e6e6f742064697361626c65206e6f6e2d6578697374656e7420726172695f8201527f7479000000000000000000000000000000000000000000000000000000000000602082015250565b5f6137406022836129b3565b915061374b826136e6565b604082019050919050565b5f6020820190508181035f83015261376d81613734565b9050919050565b7f4c656e677468206d69736d6174636800000000000000000000000000000000005f82015250565b5f6137a8600f836129b3565b91506137b382613774565b602082019050919050565b5f6020820190508181035f8301526137d58161379c565b9050919050565b7f4f776e61626c653a206e6577206f776e657220697320746865207a65726f20615f8201527f6464726573730000000000000000000000000000000000000000000000000000602082015250565b5f6138366026836129b3565b9150613841826137dc565b604082019050919050565b5f6020820190508181035f8301526138638161382a565b9050919050565b7f455243313135353a206d696e7420746f20746865207a65726f206164647265735f8201527f7300000000000000000000000000000000000000000000000000000000000000602082015250565b5f6138c46021836129b3565b91506138cf8261386a565b604082019050919050565b5f6020820190508181035f8301526138f1816138b8565b9050919050565b5f61390282612832565b915061390d83612832565b925082820190508082111561392557613924613672565b5b92915050565b7f455243313135353a2069647320616e6420616d6f756e7473206c656e677468205f8201527f6d69736d61746368000000000000000000000000000000000000000000000000602082015250565b5f6139856028836129b3565b91506139908261392b565b604082019050919050565b5f6020820190508181035f8301526139b281613979565b9050919050565b7f455243313135353a207472616e7366657220746f20746865207a65726f2061645f8201527f6472657373000000000000000000000000000000000000000000000000000000602082015250565b5f613a136025836129b3565b9150613a1e826139b9565b604082019050919050565b5f6020820190508181035f830152613a4081613a07565b9050919050565b7f455243313135353a20696e73756666696369656e742062616c616e636520666f5f8201527f72207472616e7366657200000000000000000000000000000000000000000000602082015250565b5f613aa1602a836129b3565b9150613aac82613a47565b604082019050919050565b5f6020820190508181035f830152613ace81613a95565b9050919050565b5f6040820190508181035f830152613aed8185612fb3565b90508181036020830152613b018184612fb3565b90509392505050565b7f4f776e61626c653a2063616c6c6572206973206e6f7420746865206f776e65725f82015250565b5f613b3e6020836129b3565b9150613b4982613b0a565b602082019050919050565b5f6020820190508181035f830152613b6b81613b32565b9050919050565b7f455243313135353a2073657474696e6720617070726f76616c207374617475735f8201527f20666f722073656c660000000000000000000000000000000000000000000000602082015250565b5f613bcc6029836129b3565b9150613bd782613b72565b604082019050919050565b5f6020820190508181035f830152613bf981613bc0565b9050919050565b7f52617269747920616c72656164792065786973747300000000000000000000005f82015250565b5f613c346015836129b3565b9150613c3f82613c00565b602082019050919050565b5f6020820190508181035f830152613c6181613c28565b9050919050565b5f81905092915050565b7f416363657373436f6e74726f6c3a206163636f756e74200000000000000000005f82015250565b5f613ca6601783613c68565b9150613cb182613c72565b601782019050919050565b5f613cc6826129a9565b613cd08185613c68565b9350613ce08185602086016129c3565b80840191505092915050565b7f206973206d697373696e6720726f6c65200000000000000000000000000000005f82015250565b5f613d20601183613c68565b9150613d2b82613cec565b601182019050919050565b5f613d4082613c9a565b9150613d4c8285613cbc565b9150613d5782613d14565b9150613d638284613cbc565b91508190509392505050565b5f81519050919050565b5f82825260208201905092915050565b5f613d9382613d6f565b613d9d8185613d79565b9350613dad8185602086016129c3565b613db6816129eb565b840191505092915050565b5f60a082019050613dd45f83018861302f565b613de1602083018761302f565b613dee60408301866128a3565b613dfb60608301856128a3565b8181036080830152613e0d8184613d89565b90509695505050505050565b5f81519050613e27816128f6565b92915050565b5f60208284031215613e4257613e416127d0565b5b5f613e4f84828501613e19565b91505092915050565b5f8160e01c9050919050565b5f60033d1115613e805760045f803e613e7d5f51613e58565b90505b90565b5f60443d10613f0f57613e946127c7565b60043d036004823e80513d602482011167ffffffffffffffff82111715613ebc575050613f0f565b808201805167ffffffffffffffff811115613eda5750505050613f0f565b80602083010160043d038501811115613ef7575050505050613f0f565b613f0682602001850186612b5a565b82955050505050505b90565b7f455243313135353a207472616e7366657220746f206e6f6e2d455243313135355f8201527f526563656976657220696d706c656d656e746572000000000000000000000000602082015250565b5f613f6c6034836129b3565b9150613f7782613f12565b604082019050919050565b5f6020820190508181035f830152613f9981613f60565b9050919050565b7f455243313135353a204552433131353552656365697665722072656a656374655f8201527f6420746f6b656e73000000000000000000000000000000000000000000000000602082015250565b5f613ffa6028836129b3565b915061400582613fa0565b604082019050919050565b5f6020820190508181035f83015261402781613fee565b9050919050565b5f60a0820190506140415f83018861302f565b61404e602083018761302f565b81810360408301526140608186612fb3565b905081810360608301526140748185612fb3565b905081810360808301526140888184613d89565b90509695505050505050565b5f61409e82612832565b91506140a983612832565b92508282026140b781612832565b915082820484148315176140ce576140cd613672565b5b5092915050565b5f6140df82612832565b91505f82036140f1576140f0613672565b5b600182039050919050565b7f537472696e67733a20686578206c656e67746820696e73756666696369656e745f82015250565b5f6141306020836129b3565b915061413b826140fc565b602082019050919050565b5f6020820190508181035f83015261415d81614124565b905091905056fea2646970667358221220e54d119a37adca3b176a8e03fa0c0a01957db81b6b8163e4e0825b79496d900764736f6c6343000814003368747470733a2f2f6761636861706f6e2e636c75622f6170692f7261726974792f7b69647d2e6a736f6e","linkReferences":{}},"methodIdentifiers":{"DEFAULT_ADMIN_ROLE()":"a217fddf","MINTER_ROLE()":"d5391393","addRarity(uint256,uint256)":"ac7b5e0e","balanceOf(address,uint256)":"00fdd58e","balanceOfBatch(address[],uint256[])":"4e1273f4","enabledRarities(uint256)":"7928040a","getRoleAdmin(bytes32)":"248a9ca3","grantRole(bytes32,address)":"2f2ff15d","hasRole(bytes32,address)":"91d14854","isApprovedForAll(address,address)":"e985e9c5","mint(address,uint256,uint256)":"156e29f6","mintBatch(address,uint256[],uint256[])":"d81d0a15","owner()":"8da5cb5b","rarityPrices(uint256)":"eaa2b6ed","renounceOwnership()":"715018a6","renounceRole(bytes32,address)":"36568abe","revokeRole(bytes32,address)":"d547741f","safeBatchTransferFrom(address,address,uint256[],uint256[],bytes)":"2eb2c2d6","safeTransferFrom(address,address,uint256,uint256,bytes)":"f242432a","setApprovalForAll(address,bool)":"a22cb465","setPrice(uint256,uint256)":"f7d97577","setRarityEnabled(uint256,bool)":"98493387","supportsInterface(bytes4)":"01ffc9a7","transferOwnership(address)":"f2fde38b","uri(uint256)":"0e89341c"},"id":39}